{
  "contractName": "CarbonCurrency",
  "abi": [
    {
      "inputs": [],
      "payable": false,
      "stateMutability": "nonpayable",
      "type": "constructor"
    },
    {
      "anonymous": false,
      "inputs": [
        {
          "indexed": true,
          "name": "_from",
          "type": "address"
        },
        {
          "indexed": true,
          "name": "_to",
          "type": "address"
        },
        {
          "indexed": false,
          "name": "_value",
          "type": "uint256"
        },
        {
          "indexed": false,
          "name": "_typeOfCarbon",
          "type": "string"
        }
      ],
      "name": "Transfer",
      "type": "event"
    },
    {
      "anonymous": false,
      "inputs": [
        {
          "indexed": true,
          "name": "_from",
          "type": "address"
        },
        {
          "indexed": true,
          "name": "_to",
          "type": "address"
        },
        {
          "indexed": false,
          "name": "_value",
          "type": "uint256"
        }
      ],
      "name": "share",
      "type": "event"
    },
    {
      "constant": false,
      "inputs": [
        {
          "name": "receiver",
          "type": "address"
        },
        {
          "name": "typeOfCarbon",
          "type": "string"
        },
        {
          "name": "amount",
          "type": "uint256"
        }
      ],
      "name": "spendForpetrol",
      "outputs": [
        {
          "name": "sufficient",
          "type": "bool"
        }
      ],
      "payable": false,
      "stateMutability": "nonpayable",
      "type": "function"
    },
    {
      "constant": false,
      "inputs": [
        {
          "name": "receiver",
          "type": "address"
        },
        {
          "name": "typeOfCarbon",
          "type": "string"
        },
        {
          "name": "amount",
          "type": "uint256"
        }
      ],
      "name": "spendforLPG",
      "outputs": [
        {
          "name": "sufficient",
          "type": "bool"
        }
      ],
      "payable": false,
      "stateMutability": "nonpayable",
      "type": "function"
    },
    {
      "constant": false,
      "inputs": [
        {
          "name": "receiver",
          "type": "address"
        },
        {
          "name": "typeOfCarbon",
          "type": "string"
        },
        {
          "name": "amount",
          "type": "uint256"
        }
      ],
      "name": "spendforElectricity",
      "outputs": [
        {
          "name": "sufficient",
          "type": "bool"
        }
      ],
      "payable": false,
      "stateMutability": "nonpayable",
      "type": "function"
    },
    {
      "constant": false,
      "inputs": [
        {
          "name": "receiver",
          "type": "address"
        },
        {
          "name": "amount",
          "type": "uint256"
        }
      ],
      "name": "shareCoins",
      "outputs": [
        {
          "name": "sufficient",
          "type": "bool"
        }
      ],
      "payable": false,
      "stateMutability": "nonpayable",
      "type": "function"
    },
    {
      "constant": false,
      "inputs": [
        {
          "name": "addr",
          "type": "address"
        }
      ],
      "name": "getBalance",
      "outputs": [
        {
          "name": "",
          "type": "uint256"
        }
      ],
      "payable": false,
      "stateMutability": "nonpayable",
      "type": "function"
    }
  ],
  "bytecode": "0x6060604052341561000f57600080fd5b62030d406000803373ffffffffffffffffffffffffffffffffffffffff1673ffffffffffffffffffffffffffffffffffffffff16815260200190815260200160002081905550610ce1806100646000396000f30060606040526004361061006d576000357c0100000000000000000000000000000000000000000000000000000000900463ffffffff168063178f28c3146100725780631fe45a611461010f5780636a6bb9d3146101ac578063c1f96fb514610206578063f8b2cb4f146102a3575b600080fd5b341561007d57600080fd5b6100f5600480803573ffffffffffffffffffffffffffffffffffffffff1690602001909190803590602001908201803590602001908080601f016020809104026020016040519081016040528093929190818152602001838380828437820191505050505050919080359060200190919050506102f0565b604051808215151515815260200191505060405180910390f35b341561011a57600080fd5b610192600480803573ffffffffffffffffffffffffffffffffffffffff1690602001909190803590602001908201803590602001908080601f01602080910402602001604051908101604052809392919081815260200183838082843782019150505050505091908035906020019091905050610539565b604051808215151515815260200191505060405180910390f35b34156101b757600080fd5b6101ec600480803573ffffffffffffffffffffffffffffffffffffffff16906020019091908035906020019091905050610784565b604051808215151515815260200191505060405180910390f35b341561021157600080fd5b610289600480803573ffffffffffffffffffffffffffffffffffffffff1690602001909190803590602001908201803590602001908080601f016020809104026020016040519081016040528093929190818152602001838380828437820191505050505050919080359060200190919050506108dd565b604051808215151515815260200191505060405180910390f35b34156102ae57600080fd5b6102da600480803573ffffffffffffffffffffffffffffffffffffffff16906020019091905050610b28565b6040518082815260200191505060405180910390f35b6000816000803373ffffffffffffffffffffffffffffffffffffffff1673ffffffffffffffffffffffffffffffffffffffff1681526020019081526020016000205410156103415760009050610532565b600982026000803373ffffffffffffffffffffffffffffffffffffffff1673ffffffffffffffffffffffffffffffffffffffff16815260200190815260200160002060008282540392505081905550600982026000808673ffffffffffffffffffffffffffffffffffffffff1673ffffffffffffffffffffffffffffffffffffffff16815260200190815260200160002060008282540192505081905550600160003373ffffffffffffffffffffffffffffffffffffffff1673ffffffffffffffffffffffffffffffffffffffff16815260200190815260200160002060000180548060010182816104339190610b70565b916000526020600020900160008590919091509080519060200190610459929190610b9c565b50508373ffffffffffffffffffffffffffffffffffffffff163373ffffffffffffffffffffffffffffffffffffffff167fcd6e659e4c2e75c3bfe47fecaccf39aeb368116a0ee52afb532e07f6cba6c0d184866040518083815260200180602001828103825283818151815260200191508051906020019080838360005b838110156104f25780820151818401526020810190506104d7565b50505050905090810190601f16801561051f5780820380516001836020036101000a031916815260200191505b50935050505060405180910390a3600190505b9392505050565b6000816000803373ffffffffffffffffffffffffffffffffffffffff1673ffffffffffffffffffffffffffffffffffffffff16815260200190815260200160002054101561058a576000905061077d565b61109a82026000803373ffffffffffffffffffffffffffffffffffffffff1673ffffffffffffffffffffffffffffffffffffffff1681526020019081526020016000206000828254039250508190555061109a82026000808673ffffffffffffffffffffffffffffffffffffffff1673ffffffffffffffffffffffffffffffffffffffff16815260200190815260200160002060008282540192505081905550600160003373ffffffffffffffffffffffffffffffffffffffff1673ffffffffffffffffffffffffffffffffffffffff168152602001908152602001600020600001805480600101828161067e9190610b70565b9160005260206000209001600085909190915090805190602001906106a4929190610b9c565b50508373ffffffffffffffffffffffffffffffffffffffff163373ffffffffffffffffffffffffffffffffffffffff167fcd6e659e4c2e75c3bfe47fecaccf39aeb368116a0ee52afb532e07f6cba6c0d184866040518083815260200180602001828103825283818151815260200191508051906020019080838360005b8381101561073d578082015181840152602081019050610722565b50505050905090810190601f16801561076a5780820380516001836020036101000a031916815260200191505b50935050505060405180910390a3600190505b9392505050565b6000816000803373ffffffffffffffffffffffffffffffffffffffff1673ffffffffffffffffffffffffffffffffffffffff1681526020019081526020016000205410156107d557600090506108d7565b816000803373ffffffffffffffffffffffffffffffffffffffff1673ffffffffffffffffffffffffffffffffffffffff16815260200190815260200160002060008282540392505081905550816000808573ffffffffffffffffffffffffffffffffffffffff1673ffffffffffffffffffffffffffffffffffffffff168152602001908152602001600020600082825401925050819055508273ffffffffffffffffffffffffffffffffffffffff163373ffffffffffffffffffffffffffffffffffffffff167fd095bdf64b82b9cbb7f3493a23c6b9f56177946fe929e270c67ebc7e0d82f591846040518082815260200191505060405180910390a3600190505b92915050565b6000816000803373ffffffffffffffffffffffffffffffffffffffff1673ffffffffffffffffffffffffffffffffffffffff16815260200190815260200160002054101561092e5760009050610b21565b61090682026000803373ffffffffffffffffffffffffffffffffffffffff1673ffffffffffffffffffffffffffffffffffffffff1681526020019081526020016000206000828254039250508190555061090682026000808673ffffffffffffffffffffffffffffffffffffffff1673ffffffffffffffffffffffffffffffffffffffff16815260200190815260200160002060008282540192505081905550600160003373ffffffffffffffffffffffffffffffffffffffff1673ffffffffffffffffffffffffffffffffffffffff1681526020019081526020016000206000018054806001018281610a229190610b70565b916000526020600020900160008590919091509080519060200190610a48929190610b9c565b50508373ffffffffffffffffffffffffffffffffffffffff163373ffffffffffffffffffffffffffffffffffffffff167fcd6e659e4c2e75c3bfe47fecaccf39aeb368116a0ee52afb532e07f6cba6c0d184866040518083815260200180602001828103825283818151815260200191508051906020019080838360005b83811015610ae1578082015181840152602081019050610ac6565b50505050905090810190601f168015610b0e5780820380516001836020036101000a031916815260200191505b50935050505060405180910390a3600190505b9392505050565b60008060008373ffffffffffffffffffffffffffffffffffffffff1673ffffffffffffffffffffffffffffffffffffffff168152602001908152602001600020549050919050565b815481835581811511610b9757818360005260206000209182019101610b969190610c1c565b5b505050565b828054600181600116156101000203166002900490600052602060002090601f016020900481019282601f10610bdd57805160ff1916838001178555610c0b565b82800160010185558215610c0b579182015b82811115610c0a578251825591602001919060010190610bef565b5b509050610c189190610c48565b5090565b610c4591905b80821115610c415760008181610c389190610c6d565b50600101610c22565b5090565b90565b610c6a91905b80821115610c66576000816000905550600101610c4e565b5090565b90565b50805460018160011615610100020316600290046000825580601f10610c935750610cb2565b601f016020900490600052602060002090810190610cb19190610c48565b5b505600a165627a7a7230582034e51e43d2debf80cfd8dfe00bc9bf8a6654770b454857469cbe130a13e8b1b20029",
  "source": "pragma solidity ^0.4.4;\n\n   contract CarbonCurrency {\n    mapping (address => uint256) balances;\n    mapping (address => Usr ) Users;\n   \n    //users will be stored in address array.\n   struct Usr {\n    string [] details;\n    }\n    // events will get triggered when transfer of token takes place.    \n   event Transfer(address indexed _from, address indexed _to, uint256 _value , string _typeOfCarbon); //transfer amount from to receiver\n   event share(address indexed _from, address indexed _to, uint256 _value );\n  \n   function CarbonCurrency() {\n        balances[msg.sender]= 200000;\n   }\n   \n   function spendForpetrol(address receiver,string typeOfCarbon, uint amount)returns(bool sufficient) {\n        if (balances[msg.sender] < amount ) return false; // checks balance is not 0.\n        balances[msg.sender] -= amount*2310; // deducts  balance from Sender.\n        balances[receiver] += amount*2310; // increments  balance of  receiver.\n        Users[msg.sender].details.push(typeOfCarbon);\n        Transfer(msg.sender, receiver, amount , typeOfCarbon); // event transfer gets called.\n        return true;\n    }\n\n    function spendforLPG(address receiver,string typeOfCarbon, uint amount)returns(bool sufficient) {\n        if (balances[msg.sender] < amount ) return false; // checks balance is not 0.\n        balances[msg.sender] -= amount*4250; // deducts  balance from Sender.\n        balances[receiver] += amount*4250; // increments  balance of  receiver.\n        Users[msg.sender].details.push(typeOfCarbon);\n        Transfer(msg.sender, receiver, amount , typeOfCarbon); // event transfer gets called.\n        return true;\n    }\n    \n    function spendforElectricity(address receiver,string typeOfCarbon, uint amount)returns(bool sufficient) {\n        if (balances[msg.sender] < amount ) return false; // checks balance is not 0.\n        balances[msg.sender] -= amount * 9; // deducts  balance from Sender.\n        balances[receiver] += amount * 9; // increments  balance of  receiver.\n        Users[msg.sender].details.push(typeOfCarbon);\n        Transfer(msg.sender, receiver, amount , typeOfCarbon); // event transfer gets called.\n        return true;\n    }\n    \n    function shareCoins (address receiver , uint amount) returns (bool sufficient) {\n        if (balances[msg.sender] < amount ) return false; // checks balance is not 0.\n        balances[msg.sender] -= amount; // deducts  balance from Sender.\n        balances[receiver] += amount; // increments  balance of  receiver.\n        share(msg.sender, receiver, amount); // event transfer gets called.\n        return true;\n        \n    }\n    \n   function getBalance(address addr) returns(uint ) {\n        return balances[addr];  // returns balance of reciever.\n   }\n    \n}",
  "sourcePath": "/home/dhananjayp/ethereum/chequecc/contracts/CarbonCurrency.sol",
  "compiler": {
    "name": "solc",
    "version": "0.4.19+commit.c4cbbb05.Emscripten.clang"
  },
  "schemaVersion": "2.0.0",
  "updatedAt": "2018-03-20T16:23:28.560Z"
}